{
  "transactions": [
    {
      "hash": "0x598492529f12245d29c31eab742803bb59be232c771e4489512d14a14b7fd746",
      "transactionType": "CALL",
      "contractName": null,
      "contractAddress": "0xf5fca5bb18bf721abef892be02da2145b91a7cac",
      "function": "createCampaign(uint256,uint256,string)",
      "arguments": [
        "1000000000000000000000",
        "10000",
        "\"dataCid\""
      ],
      "transaction": {
        "from": "0xde3089d40f3491de794fbb1eca109fac36f889d0",
        "to": "0xf5fca5bb18bf721abef892be02da2145b91a7cac",
        "gas": "0x30b0c",
        "value": "0x0",
        "input": "0x91cbf44e00000000000000000000000000000000000000000000003635c9adc5dea000000000000000000000000000000000000000000000000000000000000000002710000000000000000000000000000000000000000000000000000000000000006000000000000000000000000000000000000000000000000000000000000000076461746143696400000000000000000000000000000000000000000000000000",
        "nonce": "0x18d",
        "chainId": "0xaa36a7"
      },
      "additionalContracts": [],
      "isFixedGasLimit": false
    }
  ],
  "receipts": [
    {
      "status": "0x1",
      "cumulativeGasUsed": "0x9b1070",
      "logs": [
        {
          "address": "0xf5fca5bb18bf721abef892be02da2145b91a7cac",
          "topics": [
            "0xbfa6179b0a1b8dc9531b566732b570557b88e28de1bf38db79481b56cdcb1400"
          ],
          "data": "0x0000000000000000000000000000000000000000000000000000000000000001000000000000000000000000de3089d40f3491de794fbb1eca109fac36f889d000000000000000000000000000000000000000000000003635c9adc5dea000000000000000000000000000000000000000000000000000000000000066767e0c00000000000000000000000000000000000000000000000000000000000000a000000000000000000000000000000000000000000000000000000000000000076461746143696400000000000000000000000000000000000000000000000000",
          "blockHash": "0x5462e406021a6d9c218c9448d5d834ebd5b603e18cae5f02595f34b400ad5ee5",
          "blockNumber": "0x5dfcff",
          "transactionHash": "0x598492529f12245d29c31eab742803bb59be232c771e4489512d14a14b7fd746",
          "transactionIndex": "0x45",
          "logIndex": "0x94",
          "removed": false
        }
      ],
      "logsBloom": "0x00008000000000000000000000000000000000000000000000000000000000000000000000000000000000000000000000000000000000000000000000000200000000000000000000000000000000000000000000000000000000000000000000000000000000000000000000000000000000000000000000000000000000000000000000000000000000100000000000000000040000000000000000000000000001000000000000000000000000000000000040000000000000000000000000000000000000000000000000000000000000000000000000000000000000000000000000000000000000000000000000000000000000000000000000000000",
      "type": "0x2",
      "transactionHash": "0x598492529f12245d29c31eab742803bb59be232c771e4489512d14a14b7fd746",
      "transactionIndex": "0x45",
      "blockHash": "0x5462e406021a6d9c218c9448d5d834ebd5b603e18cae5f02595f34b400ad5ee5",
      "blockNumber": "0x5dfcff",
      "gasUsed": "0x23405",
      "effectiveGasPrice": "0x1005812",
      "from": "0xde3089d40f3491de794fbb1eca109fac36f889d0",
      "to": "0xf5fca5bb18bf721abef892be02da2145b91a7cac",
      "contractAddress": null
    }
  ],
  "libraries": [],
  "pending": [],
  "returns": {},
  "timestamp": 1719031549,
  "chain": 11155111,
  "commit": "f411fd1"
}